{
  "_format": "hh-sol-artifact-1",
  "contractName": "Ebay",
  "sourceName": "contracts/Ebay.sol",
  "abi": [
    {
      "inputs": [],
      "name": "Ebay_InSufficient_Amount",
      "type": "error"
    },
    {
      "inputs": [
        {
          "internalType": "string",
          "name": "_name",
          "type": "string"
        },
        {
          "internalType": "string",
          "name": "_description",
          "type": "string"
        },
        {
          "internalType": "uint256",
          "name": "_minPrice",
          "type": "uint256"
        },
        {
          "internalType": "string",
          "name": "_imgUrl",
          "type": "string"
        },
        {
          "internalType": "uint256",
          "name": "_rating",
          "type": "uint256"
        },
        {
          "internalType": "string",
          "name": "_category",
          "type": "string"
        }
      ],
      "name": "createAuction",
      "outputs": [],
      "stateMutability": "payable",
      "type": "function"
    },
    {
      "inputs": [
        {
          "internalType": "uint256",
          "name": "_auctionId",
          "type": "uint256"
        }
      ],
      "name": "createOffer",
      "outputs": [],
      "stateMutability": "payable",
      "type": "function"
    },
    {
      "inputs": [],
      "name": "getAllAuctions",
      "outputs": [
        {
          "components": [
            {
              "internalType": "uint256",
              "name": "id",
              "type": "uint256"
            },
            {
              "internalType": "string",
              "name": "name",
              "type": "string"
            },
            {
              "internalType": "string",
              "name": "description",
              "type": "string"
            },
            {
              "internalType": "uint256",
              "name": "minPrice",
              "type": "uint256"
            },
            {
              "internalType": "string",
              "name": "imgUrl",
              "type": "string"
            },
            {
              "internalType": "uint256",
              "name": "rating",
              "type": "uint256"
            },
            {
              "internalType": "string",
              "name": "category",
              "type": "string"
            },
            {
              "internalType": "address payable",
              "name": "seller",
              "type": "address"
            },
            {
              "internalType": "uint256",
              "name": "bestOfferId",
              "type": "uint256"
            },
            {
              "internalType": "uint256[]",
              "name": "offerIds",
              "type": "uint256[]"
            }
          ],
          "internalType": "struct Ebay.Auction[]",
          "name": "",
          "type": "tuple[]"
        }
      ],
      "stateMutability": "view",
      "type": "function"
    },
    {
      "inputs": [
        {
          "internalType": "address",
          "name": "_user",
          "type": "address"
        }
      ],
      "name": "getAuctionCreator",
      "outputs": [
        {
          "components": [
            {
              "internalType": "uint256",
              "name": "id",
              "type": "uint256"
            },
            {
              "internalType": "string",
              "name": "name",
              "type": "string"
            },
            {
              "internalType": "string",
              "name": "description",
              "type": "string"
            },
            {
              "internalType": "uint256",
              "name": "minPrice",
              "type": "uint256"
            },
            {
              "internalType": "string",
              "name": "imgUrl",
              "type": "string"
            },
            {
              "internalType": "uint256",
              "name": "rating",
              "type": "uint256"
            },
            {
              "internalType": "string",
              "name": "category",
              "type": "string"
            },
            {
              "internalType": "address payable",
              "name": "seller",
              "type": "address"
            },
            {
              "internalType": "uint256",
              "name": "bestOfferId",
              "type": "uint256"
            },
            {
              "internalType": "uint256[]",
              "name": "offerIds",
              "type": "uint256[]"
            }
          ],
          "internalType": "struct Ebay.Auction[]",
          "name": "",
          "type": "tuple[]"
        }
      ],
      "stateMutability": "view",
      "type": "function"
    },
    {
      "inputs": [],
      "name": "getNumberOfProducts",
      "outputs": [
        {
          "internalType": "uint256",
          "name": "",
          "type": "uint256"
        }
      ],
      "stateMutability": "view",
      "type": "function"
    },
    {
      "inputs": [
        {
          "internalType": "address",
          "name": "_user",
          "type": "address"
        }
      ],
      "name": "getUserOffers",
      "outputs": [
        {
          "components": [
            {
              "internalType": "uint256",
              "name": "id",
              "type": "uint256"
            },
            {
              "internalType": "uint256",
              "name": "auctionIds",
              "type": "uint256"
            },
            {
              "internalType": "address payable",
              "name": "buyer",
              "type": "address"
            },
            {
              "internalType": "uint256",
              "name": "price",
              "type": "uint256"
            }
          ],
          "internalType": "struct Ebay.Offer[]",
          "name": "",
          "type": "tuple[]"
        }
      ],
      "stateMutability": "view",
      "type": "function"
    },
    {
      "inputs": [
        {
          "internalType": "string",
          "name": "_name",
          "type": "string"
        },
        {
          "internalType": "string",
          "name": "_description",
          "type": "string"
        },
        {
          "internalType": "string",
          "name": "_category",
          "type": "string"
        },
        {
          "internalType": "string",
          "name": "_imgUrl",
          "type": "string"
        },
        {
          "internalType": "uint256",
          "name": "_price",
          "type": "uint256"
        },
        {
          "internalType": "uint256",
          "name": "_rating",
          "type": "uint256"
        }
      ],
      "name": "listNewProduct",
      "outputs": [],
      "stateMutability": "nonpayable",
      "type": "function"
    },
    {
      "inputs": [
        {
          "internalType": "uint256",
          "name": "_id",
          "type": "uint256"
        }
      ],
      "name": "purchaseItem",
      "outputs": [],
      "stateMutability": "payable",
      "type": "function"
    },
    {
      "inputs": [
        {
          "internalType": "uint256",
          "name": "_auctionId",
          "type": "uint256"
        }
      ],
      "name": "transaction",
      "outputs": [],
      "stateMutability": "nonpayable",
      "type": "function"
    }
  ],
  "bytecode": "0x608060405260016006556001600755600060085534801561001f57600080fd5b506127ee8061002f6000396000f3fe6080604052600436106100865760003560e01c8063a269993d11610059578063a269993d14610159578063bf69c45614610175578063cbd2bdfd14610191578063d38ea5bf146101bc578063eebcee54146101d857610086565b80633ffd81fb1461008b5780634243783f146100b657806346bd0841146100f3578063661d2c2c1461011c575b600080fd5b34801561009757600080fd5b506100a0610201565b6040516100ad9190611896565b60405180910390f35b3480156100c257600080fd5b506100dd60048036038101906100d89190611923565b61020b565b6040516100ea9190611c77565b60405180910390f35b3480156100ff57600080fd5b5061011a60048036038101906101159190611cc5565b610656565b005b34801561012857600080fd5b50610143600480360381019061013e9190611923565b61082c565b6040516101509190611df6565b60405180910390f35b610173600480360381019061016e9190611cc5565b6109cd565b005b61018f600480360381019061018a9190611fad565b610c11565b005b34801561019d57600080fd5b506101a6610ecb565b6040516101b39190611c77565b60405180910390f35b6101d660048036038101906101d19190611cc5565b6112c5565b005b3480156101e457600080fd5b506101ff60048036038101906101fa91906120b0565b6115ba565b005b6000600854905090565b60606000600260008473ffffffffffffffffffffffffffffffffffffffff1673ffffffffffffffffffffffffffffffffffffffff16815260200190815260200160002090506000818054905067ffffffffffffffff8111156102705761026f611e82565b5b6040519080825280602002602001820160405280156102a957816020015b61029661176c565b81526020019060019003908161028e5790505b50905060005b828054905081101561064b5760008382815481106102d0576102cf6121ad565b5b9060005260206000200154905060008082815260200190815260200160002060405180610140016040529081600082015481526020016001820180546103159061220b565b80601f01602080910402602001604051908101604052809291908181526020018280546103419061220b565b801561038e5780601f106103635761010080835404028352916020019161038e565b820191906000526020600020905b81548152906001019060200180831161037157829003601f168201915b505050505081526020016002820180546103a79061220b565b80601f01602080910402602001604051908101604052809291908181526020018280546103d39061220b565b80156104205780601f106103f557610100808354040283529160200191610420565b820191906000526020600020905b81548152906001019060200180831161040357829003601f168201915b50505050508152602001600382015481526020016004820180546104439061220b565b80601f016020809104026020016040519081016040528092919081815260200182805461046f9061220b565b80156104bc5780601f10610491576101008083540402835291602001916104bc565b820191906000526020600020905b81548152906001019060200180831161049f57829003601f168201915b50505050508152602001600582015481526020016006820180546104df9061220b565b80601f016020809104026020016040519081016040528092919081815260200182805461050b9061220b565b80156105585780601f1061052d57610100808354040283529160200191610558565b820191906000526020600020905b81548152906001019060200180831161053b57829003601f168201915b505050505081526020016007820160009054906101000a900473ffffffffffffffffffffffffffffffffffffffff1673ffffffffffffffffffffffffffffffffffffffff1673ffffffffffffffffffffffffffffffffffffffff168152602001600882015481526020016009820180548060200260200160405190810160405280929190818152602001828054801561061057602002820191906000526020600020905b8154815260200190600101908083116105fc575b50505050508152505083838151811061062c5761062b6121ad565b5b60200260200101819052505080806106439061226b565b9150506102af565b508092505050919050565b80600081118015610668575060065481105b6106a7576040517f08c379a000000000000000000000000000000000000000000000000000000000815260040161069e90612310565b60405180910390fd5b6000806000848152602001908152602001600020905060006001600083600801548152602001908152602001600020905060005b82600901805490508110156107b6576000836009018281548110610702576107016121ad565b5b90600052602060002001549050836008015481146107a25760006001600083815260200190815260200160002090508060020160009054906101000a900473ffffffffffffffffffffffffffffffffffffffff1673ffffffffffffffffffffffffffffffffffffffff166108fc82600301549081150290604051600060405180830381858888f1935050505015801561079f573d6000803e3d6000fd5b50505b5080806107ae9061226b565b9150506106db565b508160070160009054906101000a900473ffffffffffffffffffffffffffffffffffffffff1673ffffffffffffffffffffffffffffffffffffffff166108fc82600301549081150290604051600060405180830381858888f19350505050158015610825573d6000803e3d6000fd5b5050505050565b60606000600360008473ffffffffffffffffffffffffffffffffffffffff1673ffffffffffffffffffffffffffffffffffffffff16815260200190815260200160002090506000818054905067ffffffffffffffff81111561089157610890611e82565b5b6040519080825280602002602001820160405280156108ca57816020015b6108b76117d5565b8152602001906001900390816108af5790505b50905060005b82805490508110156109c25760008382815481106108f1576108f06121ad565b5b906000526020600020015490506001600082815260200190815260200160002060405180608001604052908160008201548152602001600182015481526020016002820160009054906101000a900473ffffffffffffffffffffffffffffffffffffffff1673ffffffffffffffffffffffffffffffffffffffff1673ffffffffffffffffffffffffffffffffffffffff1681526020016003820154815250508383815181106109a3576109a26121ad565b5b60200260200101819052505080806109ba9061226b565b9150506108d0565b508092505050919050565b806000811180156109df575060065481105b610a1e576040517f08c379a0000000000000000000000000000000000000000000000000000000008152600401610a1590612310565b60405180910390fd5b6000806000848152602001908152602001600020905060006001600083600801548152602001908152602001600020905081600301543410158015610a665750806003015434115b15610a9d576040517f13f2a58400000000000000000000000000000000000000000000000000000000815260040160405180910390fd5b6007548260080181905550816009016007549080600181540180825580915050600190039060005260206000200160009091909190915055604051806080016040528060075481526020018581526020013373ffffffffffffffffffffffffffffffffffffffff16815260200134815250600160006007548152602001908152602001600020600082015181600001556020820151816001015560408201518160020160006101000a81548173ffffffffffffffffffffffffffffffffffffffff021916908373ffffffffffffffffffffffffffffffffffffffff16021790555060608201518160030155905050600360003373ffffffffffffffffffffffffffffffffffffffff1673ffffffffffffffffffffffffffffffffffffffff168152602001908152602001600020600754908060018154018082558091505060019003906000526020600020016000909190919091505560076000815480929190610c069061226b565b919050555050505050565b60008411610c54576040517f08c379a0000000000000000000000000000000000000000000000000000000008152600401610c4b9061237c565b60405180910390fd5b60008067ffffffffffffffff811115610c7057610c6f611e82565b5b604051908082528060200260200182016040528015610c9e5781602001602082028036833780820191505090505b509050604051806101400160405280600654815260200189898080601f016020809104026020016040519081016040528093929190818152602001838380828437600081840152601f19601f8201169050808301925050505050505081526020018781526020018681526020018581526020018481526020018381526020013373ffffffffffffffffffffffffffffffffffffffff16815260200160008152602001828152506000806006548152602001908152602001600020600082015181600001556020820151816001019081610d779190612548565b506040820151816002019081610d8d9190612548565b50606082015181600301556080820151816004019081610dad9190612548565b5060a0820151816005015560c0820151816006019081610dcd9190612548565b5060e08201518160070160006101000a81548173ffffffffffffffffffffffffffffffffffffffff021916908373ffffffffffffffffffffffffffffffffffffffff1602179055506101008201518160080155610120820151816009019080519060200190610e3d929190611813565b50905050600260003373ffffffffffffffffffffffffffffffffffffffff1673ffffffffffffffffffffffffffffffffffffffff168152602001908152602001600020600654908060018154018082558091505060019003906000526020600020016000909190919091505560066000815480929190610ebc9061226b565b91905055505050505050505050565b606060006001600654610ede919061261a565b67ffffffffffffffff811115610ef757610ef6611e82565b5b604051908082528060200260200182016040528015610f3057816020015b610f1d61176c565b815260200190600190039081610f155790505b5090506000600190505b6006548110156112bd576000808281526020019081526020016000206040518061014001604052908160008201548152602001600182018054610f7c9061220b565b80601f0160208091040260200160405190810160405280929190818152602001828054610fa89061220b565b8015610ff55780601f10610fca57610100808354040283529160200191610ff5565b820191906000526020600020905b815481529060010190602001808311610fd857829003601f168201915b5050505050815260200160028201805461100e9061220b565b80601f016020809104026020016040519081016040528092919081815260200182805461103a9061220b565b80156110875780601f1061105c57610100808354040283529160200191611087565b820191906000526020600020905b81548152906001019060200180831161106a57829003601f168201915b50505050508152602001600382015481526020016004820180546110aa9061220b565b80601f01602080910402602001604051908101604052809291908181526020018280546110d69061220b565b80156111235780601f106110f857610100808354040283529160200191611123565b820191906000526020600020905b81548152906001019060200180831161110657829003601f168201915b50505050508152602001600582015481526020016006820180546111469061220b565b80601f01602080910402602001604051908101604052809291908181526020018280546111729061220b565b80156111bf5780601f10611194576101008083540402835291602001916111bf565b820191906000526020600020905b8154815290600101906020018083116111a257829003601f168201915b505050505081526020016007820160009054906101000a900473ffffffffffffffffffffffffffffffffffffffff1673ffffffffffffffffffffffffffffffffffffffff1673ffffffffffffffffffffffffffffffffffffffff168152602001600882015481526020016009820180548060200260200160405190810160405280929190818152602001828054801561127757602002820191906000526020600020905b815481526020019060010190808311611263575b5050505050815250508260018361128e919061261a565b8151811061129f5761129e6121ad565b5b602002602001018190525080806112b59061226b565b915050610f3a565b508091505090565b60006004600083815260200190815260200160002090508060030154341015611323576040517f08c379a000000000000000000000000000000000000000000000000000000000815260040161131a9061269a565b60405180910390fd5b600073ffffffffffffffffffffffffffffffffffffffff168160010160009054906101000a900473ffffffffffffffffffffffffffffffffffffffff1673ffffffffffffffffffffffffffffffffffffffff160361138057600080fd5b600073ffffffffffffffffffffffffffffffffffffffff168160000160009054906101000a900473ffffffffffffffffffffffffffffffffffffffff1673ffffffffffffffffffffffffffffffffffffffff1614611413576040517f08c379a000000000000000000000000000000000000000000000000000000000815260040161140a90612706565b60405180910390fd5b8060010160009054906101000a900473ffffffffffffffffffffffffffffffffffffffff1673ffffffffffffffffffffffffffffffffffffffff163373ffffffffffffffffffffffffffffffffffffffff16036114a5576040517f08c379a000000000000000000000000000000000000000000000000000000000815260040161149c90612798565b60405180910390fd5b338160000160006101000a81548173ffffffffffffffffffffffffffffffffffffffff021916908373ffffffffffffffffffffffffffffffffffffffff1602179055506005339080600181540180825580915050600190039060005260206000200160009091909190916101000a81548173ffffffffffffffffffffffffffffffffffffffff021916908373ffffffffffffffffffffffffffffffffffffffff1602179055508060010160009054906101000a900473ffffffffffffffffffffffffffffffffffffffff1673ffffffffffffffffffffffffffffffffffffffff166108fc349081150290604051600060405180830381858888f193505050501580156115b5573d6000803e3d6000fd5b505050565b6000604051806101200160405280600073ffffffffffffffffffffffffffffffffffffffff1681526020013373ffffffffffffffffffffffffffffffffffffffff16815260200160085481526020018481526020018381526020018881526020018781526020018681526020018581525090508060046000600854815260200190815260200160002060008201518160000160006101000a81548173ffffffffffffffffffffffffffffffffffffffff021916908373ffffffffffffffffffffffffffffffffffffffff16021790555060208201518160010160006101000a81548173ffffffffffffffffffffffffffffffffffffffff021916908373ffffffffffffffffffffffffffffffffffffffff16021790555060408201518160020155606082015181600301556080820151816004015560a08201518160050190816117049190612548565b5060c082015181600601908161171a9190612548565b5060e08201518160070190816117309190612548565b506101008201518160080190816117479190612548565b509050506008600081548092919061175e9061226b565b919050555050505050505050565b60405180610140016040528060008152602001606081526020016060815260200160008152602001606081526020016000815260200160608152602001600073ffffffffffffffffffffffffffffffffffffffff16815260200160008152602001606081525090565b60405180608001604052806000815260200160008152602001600073ffffffffffffffffffffffffffffffffffffffff168152602001600081525090565b82805482825590600052602060002090810192821561184f579160200282015b8281111561184e578251825591602001919060010190611833565b5b50905061185c9190611860565b5090565b5b80821115611879576000816000905550600101611861565b5090565b6000819050919050565b6118908161187d565b82525050565b60006020820190506118ab6000830184611887565b92915050565b6000604051905090565b600080fd5b600080fd5b600073ffffffffffffffffffffffffffffffffffffffff82169050919050565b60006118f0826118c5565b9050919050565b611900816118e5565b811461190b57600080fd5b50565b60008135905061191d816118f7565b92915050565b600060208284031215611939576119386118bb565b5b60006119478482850161190e565b91505092915050565b600081519050919050565b600082825260208201905092915050565b6000819050602082019050919050565b6119858161187d565b82525050565b600081519050919050565b600082825260208201905092915050565b60005b838110156119c55780820151818401526020810190506119aa565b60008484015250505050565b6000601f19601f8301169050919050565b60006119ed8261198b565b6119f78185611996565b9350611a078185602086016119a7565b611a10816119d1565b840191505092915050565b6000611a26826118c5565b9050919050565b611a3681611a1b565b82525050565b600081519050919050565b600082825260208201905092915050565b6000819050602082019050919050565b6000611a74838361197c565b60208301905092915050565b6000602082019050919050565b6000611a9882611a3c565b611aa28185611a47565b9350611aad83611a58565b8060005b83811015611ade578151611ac58882611a68565b9750611ad083611a80565b925050600181019050611ab1565b5085935050505092915050565b600061014083016000830151611b04600086018261197c565b5060208301518482036020860152611b1c82826119e2565b91505060408301518482036040860152611b3682826119e2565b9150506060830151611b4b606086018261197c565b5060808301518482036080860152611b6382826119e2565b91505060a0830151611b7860a086018261197c565b5060c083015184820360c0860152611b9082826119e2565b91505060e0830151611ba560e0860182611a2d565b50610100830151611bba61010086018261197c565b50610120830151848203610120860152611bd48282611a8d565b9150508091505092915050565b6000611bed8383611aeb565b905092915050565b6000602082019050919050565b6000611c0d82611950565b611c17818561195b565b935083602082028501611c298561196c565b8060005b85811015611c655784840389528151611c468582611be1565b9450611c5183611bf5565b925060208a01995050600181019050611c2d565b50829750879550505050505092915050565b60006020820190508181036000830152611c918184611c02565b905092915050565b611ca28161187d565b8114611cad57600080fd5b50565b600081359050611cbf81611c99565b92915050565b600060208284031215611cdb57611cda6118bb565b5b6000611ce984828501611cb0565b91505092915050565b600081519050919050565b600082825260208201905092915050565b6000819050602082019050919050565b608082016000820151611d34600085018261197c565b506020820151611d47602085018261197c565b506040820151611d5a6040850182611a2d565b506060820151611d6d606085018261197c565b50505050565b6000611d7f8383611d1e565b60808301905092915050565b6000602082019050919050565b6000611da382611cf2565b611dad8185611cfd565b9350611db883611d0e565b8060005b83811015611de9578151611dd08882611d73565b9750611ddb83611d8b565b925050600181019050611dbc565b5085935050505092915050565b60006020820190508181036000830152611e108184611d98565b905092915050565b600080fd5b600080fd5b600080fd5b60008083601f840112611e3d57611e3c611e18565b5b8235905067ffffffffffffffff811115611e5a57611e59611e1d565b5b602083019150836001820283011115611e7657611e75611e22565b5b9250929050565b600080fd5b7f4e487b7100000000000000000000000000000000000000000000000000000000600052604160045260246000fd5b611eba826119d1565b810181811067ffffffffffffffff82111715611ed957611ed8611e82565b5b80604052505050565b6000611eec6118b1565b9050611ef88282611eb1565b919050565b600067ffffffffffffffff821115611f1857611f17611e82565b5b611f21826119d1565b9050602081019050919050565b82818337600083830152505050565b6000611f50611f4b84611efd565b611ee2565b905082815260208101848484011115611f6c57611f6b611e7d565b5b611f77848285611f2e565b509392505050565b600082601f830112611f9457611f93611e18565b5b8135611fa4848260208601611f3d565b91505092915050565b600080600080600080600060c0888a031215611fcc57611fcb6118bb565b5b600088013567ffffffffffffffff811115611fea57611fe96118c0565b5b611ff68a828b01611e27565b9750975050602088013567ffffffffffffffff811115612019576120186118c0565b5b6120258a828b01611f7f565b95505060406120368a828b01611cb0565b945050606088013567ffffffffffffffff811115612057576120566118c0565b5b6120638a828b01611f7f565b93505060806120748a828b01611cb0565b92505060a088013567ffffffffffffffff811115612095576120946118c0565b5b6120a18a828b01611f7f565b91505092959891949750929550565b60008060008060008060c087890312156120cd576120cc6118bb565b5b600087013567ffffffffffffffff8111156120eb576120ea6118c0565b5b6120f789828a01611f7f565b965050602087013567ffffffffffffffff811115612118576121176118c0565b5b61212489828a01611f7f565b955050604087013567ffffffffffffffff811115612145576121446118c0565b5b61215189828a01611f7f565b945050606087013567ffffffffffffffff811115612172576121716118c0565b5b61217e89828a01611f7f565b935050608061218f89828a01611cb0565b92505060a06121a089828a01611cb0565b9150509295509295509295565b7f4e487b7100000000000000000000000000000000000000000000000000000000600052603260045260246000fd5b7f4e487b7100000000000000000000000000000000000000000000000000000000600052602260045260246000fd5b6000600282049050600182168061222357607f821691505b602082108103612236576122356121dc565b5b50919050565b7f4e487b7100000000000000000000000000000000000000000000000000000000600052601160045260246000fd5b60006122768261187d565b91507fffffffffffffffffffffffffffffffffffffffffffffffffffffffffffffffff82036122a8576122a761223c565b5b600182019050919050565b600082825260208201905092915050565b7f41756374696f6e20646f6573206e6f742065786973742e000000000000000000600082015250565b60006122fa6017836122b3565b9150612305826122c4565b602082019050919050565b60006020820190508181036000830152612329816122ed565b9050919050565b7f4d696e696d756d206d7573742062652067726561746572207468616e20302e00600082015250565b6000612366601f836122b3565b915061237182612330565b602082019050919050565b6000602082019050818103600083015261239581612359565b9050919050565b60008190508160005260206000209050919050565b60006020601f8301049050919050565b600082821b905092915050565b6000600883026123fe7fffffffffffffffffffffffffffffffffffffffffffffffffffffffffffffffff826123c1565b61240886836123c1565b95508019841693508086168417925050509392505050565b6000819050919050565b600061244561244061243b8461187d565b612420565b61187d565b9050919050565b6000819050919050565b61245f8361242a565b61247361246b8261244c565b8484546123ce565b825550505050565b600090565b61248861247b565b612493818484612456565b505050565b5b818110156124b7576124ac600082612480565b600181019050612499565b5050565b601f8211156124fc576124cd8161239c565b6124d6846123b1565b810160208510156124e5578190505b6124f96124f1856123b1565b830182612498565b50505b505050565b600082821c905092915050565b600061251f60001984600802612501565b1980831691505092915050565b6000612538838361250e565b9150826002028217905092915050565b6125518261198b565b67ffffffffffffffff81111561256a57612569611e82565b5b612574825461220b565b61257f8282856124bb565b600060209050601f8311600181146125b257600084156125a0578287015190505b6125aa858261252c565b865550612612565b601f1984166125c08661239c565b60005b828110156125e8578489015182556001820191506020850194506020810190506125c3565b868310156126055784890151612601601f89168261250e565b8355505b6001600288020188555050505b505050505050565b60006126258261187d565b91506126308361187d565b92508282039050818111156126485761264761223c565b5b92915050565b7f496e76616c696420616d6f756e742073656e7420666f722070726f6475637400600082015250565b6000612684601f836122b3565b915061268f8261264e565b602082019050919050565b600060208201905081810360008301526126b381612677565b9050919050565b7f4974656d20686173206265656e20626f75676874000000000000000000000000600082015250565b60006126f06014836122b3565b91506126fb826126ba565b602082019050919050565b6000602082019050818103600083015261271f816126e3565b9050919050565b7f53656c6c65722063616e6e6f7420627579207468656972206f776e2070726f6460008201527f7563740000000000000000000000000000000000000000000000000000000000602082015250565b60006127826023836122b3565b915061278d82612726565b604082019050919050565b600060208201905081810360008301526127b181612775565b905091905056fea264697066735822122045d1342811d18ee94c89110be18f51d947e4c28b7f4e00a42c28d7bc27bc58a264736f6c63430008110033",
  "linkReferences": {},
  "deployedLinkReferences": {}
}